S01700004763634170706C69636174696F6E322E737265635A
S113000045C0000060C000005EC000005CC000008D
S11300105AC000006AC00000A0C0000054C0000024
S113002052C0000050C000004EC000004CC0000090
S11300304AC0000048C0000046C0000044C00000A0
S113004042C0000040C000003EC000003CC00000B0
S11300503AC0000038C0000036C0000034C00000C0
S113006032C0000030C000002EC000002CC00000D0
S11300702AC0000028C0000026C0000024C00000E0
S113008022C0000020C000001EC0000011241FBEBA
S1130090CFEFD0E1DEBFCDBF11E0A0E0B1E0E4E7F7
S11300A0F1E000E00BBF02C007900D92A430B1074D
S11300B0D9F721E0A4E0B1E001C01D92A630B20757
S11300C0E1F711D055C09CCF8FEF8ABB81E087BB8D
S11300D012B884E081BB82BB80E383B989BF8BE023
S11300E08ABF78940895F0DFFFCF1F920F920FB666
S11300F00F9211240BB60F922F938F939F93EF932C
S1130100FF932FEF80E792E0215080409040E1F789
S113011000C00000E0910401F0910501E050FF4FA0
S113012080818BBB8091040190910501019690938D
S1130130050180930401059724F0109205011092A3
S11301400401FF91EF919F918F912F910F900BBE1E
S11301500F900FBE0F901F9018951F920F920FB61D
S11301600F9211241BBA0F900FBE0F901F90189579
S1070170F894FFCF2D
S107017428B3BA7876
S9030000FC
