:1000000045C000004BC0000049C0000047C00000D0
:1000100045C0000051C000005DC000003FC00000AE
:100020003DC000003BC0000039C0000037C00000E8
:1000300035C0000033C0000031C000002FC00000F8
:100040002DC000002BC0000029C0000027C0000008
:1000500025C0000023C0000021C000001FC0000018
:100060001DC000001BC0000019C0000017C0000028
:1000700015C0000013C0000011C000000FC0000038
:100080000DC000000BC0000009C0000011241FBEFD
:10009000CFEFD0E1DEBFCDBF0DD027C0B1CF8FEF06
:1000A0008ABB81E087BB12B880E383B91ABE89BFDF
:1000B00078940895F4DFFFCF1F920F920FB60F923E
:1000C00011248F9381E08BBB8F910F900FBE0F9007
:1000D0001F9018951F920F920FB60F9211241BBA02
:0E00E0000F900FBE0F901F901895F894FFCF51
:00000001FF
